:020000040800F2
:1000000080120020D500000871940008F5840008D3
:1000100000000000000000000000000000000000E0
:10002000000000000000000000000000399C0008F3
:10003000000000000000000073940008F1A5000813
:10004000E7000008E700000875940008E7000008D2
:10005000E7000008315F0008555F0008795F00087D
:10006000E7000008E7000008E7000008E7000008D4
:10007000E7000008E70000080000000055A600089F
:1000800000000000E7000008000000000000000081
:10009000E700000800000000E7000008E700000893
:1000A000E7000008E7000008E7000008E700000894
:1000B000E7000008E7000008E7000008E700000884
:1000C0000348854605F068FC0048004741B7000832
:1000D000801200200448804704480047FEE7FEE7FE
:1000E000FEE7FEE7FEE7FEE701A60008C100000804
:1000F00000B585B0022802D004280FD01DE02948A1
:100100000090294801902948029068469622920062
:1001100082810122827302F031FC0FE021480090BD
:1001200023480190214802906846962292008281DD
:100130000122827302F022FC00E0FF2005B000BD26
:1001400080B502F0ECFC02BD10B582B0049C0094B6
:1001500002F006FD16BD80B502F0CBFD02BD80B5F4
:1001600002F034FE02BD10B5002204E09300E41852
:10017000C3586360521C0F4C032AF7DB218002F046
:1001800031FE10BD18B4002204E09300E418646846
:10019000C450521C074C032AF7DB2088088000203B
:1001A00012BC7047C07AC6358041F43500EE0200BB
:1001B000602EF936A009002080B502F0FDFD02BDD9
:1001C00080B503F021F902BDF7B50500AE4804681B
:1001D000200005F084F9AD498C4203D3FC21890548
:1001E00004F04FFF05F014FA0022DC4B05F076F81E
:1001F00006000F0000242100A54800F008F9A842DD
:1002000003D2641CE4B20C2CF5D1029804702800CF
:1002100005F080F932003B0005F0C8F806000F0039
:10022000002C13D0601E05F061F902000B000020C5
:100230008021C9050BF098FB02000B00300039004B
:1002400005F0B4F80022C64B04F096FF0CF08AF8D3
:1002500005F0C0F901990880F7BDF3B585B0170026
:10026000082501266A460121052009F0B0FB6846F1
:100270000078C00600D4042500F0B2FC002800D0AD
:1002800002268148006805F02AF90400280005F0DC
:1002900026F901009220C00504F0F3FE01002000C1
:1002A00004F02CFF0190002433002A002100FF20DD
:1002B00000F0F0F80599814203D3641CE4B20C2CE1
:1002C000F2D13C707543280005F010F906000F00CC
:1002D000059805F004F9019904F010FF05F098F96C
:1002E00002AA03C2002C0DD10020FF218905320093
:1002F0003B0004F0F3FF02000B0002A803C805F066
:1003000055F81CE0601E05F0F1F802000B0000201B
:100310008021C9050BF028FB32003B0004F0DEFF12
:100320000022FF239B0504F0D9FF02000B0002A866
:1003300003C805F03BF80022A24B04F01DFF0CF0AF
:1003400011F805F023F90699087007B0F0BD000018
:10035000F7B586B000F076FC01004B480068491CF8
:10036000C9B204F0E7FD642104F0E4FD029000242A
:10037000002500BF96A06900415A0298484392495F
:1003800004F0D8FD0699814203D26D1C6DB25A2D3E
:10039000EFDB002D2CD00195002603AF06990091CC
:1003A0008BA00199891949004018801E0188029884
:1003B0004843854904F0BEFD0099081A710078523F
:1003C000761C032EEADB32486100795E0A000B4698
:1003D00000D55B4280B2834207DA012A01DB88B292
:1003E00000E05042019909194D1E641C032CEBDBFF
:1003F0006DB22800092104F0B3FD089908702800A7
:10040000092104F0ADFD0798017009B0F0BDF0B509
:1004100083B006000F001C480468200005F07AF83D
:100420001A4A944203D30022C74B04F057FF00221C
:100430004A4B04F053FF04000D00002F05D130009B
:1004400005F068F822002B0016E0781E05F04EF843
:1004500002000B0000208021C9050BF085FA6A46D6
:1004600003C280204002301805F040F822002B0023
:1004700004F034FF6A460CCA04F030FF0BF072FF40
:1004800005F0A8F8FEBD00002002002081C3C901CC
:10049000FFFF0000F3B585B016001F004B48006851
:1004A00005F01DF80500300005F019F89221C90586
:1004B00004F0E7FD0400380005F011F8210004F015
:1004C000E0FD0100280004F019FE05F0A1F8040089
:1004D0000D006846007D00906846007E00280FD120
:1004E000009846437E43300005F000F80022FF23C9
:1004F0009B0504F0F3FE0BF035FF22002B0025E0F6
:100500006846007E401E04F0F1FF02000B00002050
:100510008021C9050BF028FA02AA03C200988021A5
:100520004900401846437E43300004F0DFFF02AA32
:100530000CCA04F0D3FE0022FF239B0504F0CEFE7C
:100540000BF010FF02000B002000290004F0C6FE93
:100550000BF008FF05F03EF807B0F0BD0000F03DDD
:100560000000F0C0F8B505000E0018480768380014
:1005700004F0B5FF0400B248874205D3FC20800593
:10058000210004F07EFD040011A0F1008919691812
:100590004900405A04F0BEFF0022BC4B04F09EFE0E
:1005A00006000F00200005F033F80022B84B04F0DD
:1005B000FDFE32003B0004F091FE0BF0D3FE05F08F
:1005C00009F8F2BD000070C0280A000020020020D7
:1005D000411F0F1F041EC81C8B1B351A1719EB1661
:1005E00026159D11A310C00FE00E250E590DB60C57
:1005F000810B8F0AC7084C08DF076C070F07AA0694
:100600005806BF05460563042604ED03B6038703B9
:1006100055032C03DF02A30231021202F601DA01B4
:10062000C301AA0196016F01510118010901FB00E4
:10063000ED00E200D500CB00B800A9008C008500D9
:100640007E00770071006A0065005C00540046007F
:1006500042003F003B003800350033002E002A00E6
:10066000230021001F001E001C001B0019001700A2
:1006700015001200110010000F000E000D000D00FB
:100680000C000B00F0B585B00C00150004F042FF23
:10069000029003917F48006804F03CFF00900191B4
:1006A000280004F037FF00227B4B04F017FE060001
:1006B0000F00200004F02EFF0022234B04F00EFE5A
:1006C00032003B0004F00AFE02000B000098019982
:1006D00004F06CFE029A039B04F000FE0BF042FE55
:1006E00004F078FF05B0F0BD7CB50E006B494118F1
:1006F0006B4A914202D28025ED0500E0694D04F07D
:1007000009FF00222B0004F0E9FD00900191300068
:1007100004F000FF0022604B04F0E0FD04000D0037
:100720005C48006804F0F6FE02000B00200029007F
:1007300004F03CFE009A019B04F0D0FD0BF012FE89
:1007400004F048FF76BD00000000E03F10B504F063
:10075000C6FE04004F48006804F0C1FE01002000FE
:1007600004F0CCFC04F054FF0022B64B04F0B6FDBC
:100770000BF0F8FD04F00AFFC0B210BDD0B50400C4
:100780004448006804F0ABFE04F042FF0022FC2362
:100790009B0504F0A3FD06000F00200004F0BAFE44
:1007A00032003B0004F09AFD0BF0DCFD04F012FF78
:1007B000D0BDBEB583B00400364805680295204818
:1007C000854201D368080290CD4FE00204F0A2FEFA
:1007D00000900191280004F082FE04F019FF00222D
:1007E0003B0004F0E3FD02000B000098019904F0C7
:1007F000DDFD0022D44B04F0BFFC04F0C7FE0399DA
:100800000870E00204F086FE04000D00029804F077
:1008100066FE04F0FDFE00223B0004F0C7FD02006E
:100820000B002000290004F0C1FD0022C64B04F09B
:10083000A3FC04F0ABFE0499087006B0B0BD000044
:1008400081C3C901F1B50C00150019000826134831
:100850002818134A904200D204260E48006804F07B
:1008600069FB020001200223D14F7543E1263601C6
:10087000B54203D3BA4204D2012303E0BA4201D302
:100880000323002000990B702070F1BD0000594037
:10089000A8CB784120020020000030410071BDCC7F
:1008A00001B4C40400001040F0B585B0070000F0AA
:1008B000C9F90400D5480068D549884202D2012C04
:1008C00033D104E0491C88422FD3002C2DD1632062
:1008D00008F0EFFFCF4D002669460E7003E0684632
:1008E0000078401C087068460078FF28F7D100F0B7
:1008F00023FD287840080228EED1601E8041C00FF9
:1009000000F08AF9622008F0D4FF69460E7003E017
:1009100068460078401C087068460078FF28F7D1C8
:1009200000F00AFD28784008EFD102AC621C02A951
:10093000D748FFF73EFF02AA0221092009F075F906
:1009400004AA01A9891CB868FFF73EFC6846C08864
:10095000000A20706846C088607038796946097C52
:100960000143A17001AA01A9491CF868FFF775FCB1
:10097000E21C0121112009F02AF8E078F021014061
:10098000684600790843E07068464079207100AA03
:10099000921C00A9C91C3869FFF7DAFC6846C078C8
:1009A0000001694689780143617102AA06210E207F
:1009B00009F03BF902AA0321622009F008F880251A
:1009C000022039795029217806D04906490E217034
:1009D0006178FD220A4004E02943217061780222F7
:1009E0000A436270A278FC211140A170BA68FA2310
:1009F0009B019A420AD35B009A4201D2012003E094
:100A0000D34B9A4200D303200843A07002AA0321CB
:100A1000622009F00AF900AA521C0121142008F0F2
:100A2000D6FF6846407805436846457000AA521CC8
:100A30000121142009F0F9F8386800F03EF905B0FA
:100A4000F0BD00000000E040F0B585B0050002AA4E
:100A50000421052008F0BBFF02AC2078C00601D5B8
:100A6000082700E0042720780007000961780904BE
:100A70000143A07800020843E1780143019100F0AE
:100A8000AFF8461CF2B239000198FFF7FBFD286071
:100A900002AA06210E2008F09AFF01905D4801A9E4
:100AA0000A7802704A784270A078F02101402971DA
:100AB00021796A46D170E1780907090F917061794F
:100AC0000A096B465A700907090F6A461170010737
:100AD000090F2078000262781043FFF798FCA860A5
:100AE000F3B23A0068468178C078FFF7D3FCE8603B
:100AF000684601784078FFF735FD286105B0F0BD04
:100B0000000028401CB5040001AA0121052008F0BE
:100B10005EFF68460079F0210140684601712101BD
:100B2000090F6A4612790A430270210C4170210AAA
:100B30008170C4706A460421052009F076F800909F
:100B40003448694684E20000000059C000B583B013
:100B50006A460421052008F03AFF01902D4801A9BA
:100B60000A7802704A7842706846017809070909D4
:100B7000427812040A43817809021143C07808437D
:100B80000EBD01B582B002AA01210D20EDE200B533
:100B900083B06A4601210D2008F019FF01901D481D
:100BA00001A90A7802704A784270684600780EBD42
:100BB00081C3C9011CB504006A4601216D2008F0FB
:100BC00006FF012C6846007802D10821014301E0AC
:100BD000F7210140684601706A4601216D2032E22A
:100BE00000B583B06A4601216D2008F0F0FE019047
:100BF000084801A90A7802704A784270684601786C
:100C000008200140080000D001200EBD2002002075
:100C100080C3C901B00900201CB504006A46012147
:100C20006C2008F0D4FE012C6846007802D1EF2138
:100C3000014001E010210143684601706A4601212C
:100C40006C2000E200B583B06A4601216C2008F0F8
:100C5000BEFE0190834801A90A7802704A7842706A
:100C60006846017810200140481E8041C00F0EBD2B
:100C700000B583B0FFF76AFD694608706A46012136
:100C80000C2008F0D2FF0190764801A972E2000022
:100C9000E093040000B583B06A4601210C2008F0FF
:100CA00096FE01906F4801A90A7802704A78427056
:100CB00068460078FFF762FD0EBD7CB50600102483
:100CC000FFF78EFF401CC1B23000FFF70DFD05009D
:100CD000C1483018C149884200D20024FFF780FF84
:100CE000431CDBB2320000A9491C00A8801CFFF79E
:100CF000A9FD6A460121652008F069FE6846007872
:100D0000FB210140684640780843694608706A46FE
:100D10000121652008F089FF01A82901090F6A4611
:100D2000927852010A4314430470290C4170290A35
:100D30008170C57001AA0421052008F076FF01909A
:100D4000484801A90A7802704A784270002076BDAE
:100D500024F4000030B583B06A460421052008F071
:100D600036FE01903F4801A90A7802704A78427025
:100D70006C462078C00601D5082500E00425FFF761
:100D80002FFF421CD2B229002078000700096378A7
:100D90001B040343A07805021D43E0782843FFF7B6
:100DA00071FC3EBD00B583B000AA921C6946FFF7F6
:100DB0000BFA01AA03210E2008F009FE01A86946DA
:100DC0000988090A01706946098841708178F02212
:100DD0000A40694689781143817001AA03210E20D7
:100DE00008F023FF01901F4801A9C3E100B583B0BB
:100DF0006A4603210E2008F0EAFD0190194801A976
:100E00000A7802704A7842706A4690780107090FA2
:100E10001078000252781043FFF7F9FA0EBD00B5C2
:100E200083B06A4600A9491CFFF717FA00AA921C72
:100E30000221112008F0CBFD00A8801C0178F022CF
:100E40000A40694609781143017069464978417042
:100E500000AA921C0221112008F0E7FE019001482F
:100E600001A987E1B009002030B583B00425FFF760
:100E7000B7FE441C6A460121052008F0A8FD019038
:100E8000B04801A90A7802704A7842706846007832
:100E9000C00600D4082500AA921C0221112008F0E7
:100EA00096FD00A8801CE3B22A0001780907090F0B
:100EB0004078FFF7EFFA3EBD00B583B000AA521CA0
:100EC00000A9891CFFF744FA68468078000169464A
:100ED00049780143684601706A460121132008F0F1
:100EE000A4FE0190974801A944E100B583B06A4689
:100EF0000121132008F06BFD0190924801A90A78A6
:100F000002704A784270684600780107090F684607
:100F100000780009FFF726FB0EBD1CB504006A46E9
:100F20000121102008F053FD684600780007000FEB
:100F30000443684604706A460121102083E000B52E
:100F400083B06A460121102008F041FD01907D48E0
:100F500001A90A7802704A78427068460178F02048
:100F600008400EBDCA4908607047C948006870470C
:100F70001CB504006A460121622008F028FD012CFE
:100F80006846007802D14021014301E0BF210140C1
:100F90006846017054E01CB504000A001000BD4909
:100FA00004F066FB01D801200DE0BB48110004F0FD
:100FB00060F804F02DFB00228023DB0504F08EF99D
:100FC00004F0E4FA401C694608706A460121612079
:100FD000001BC0B237E000000071BDCC01B4C404F6
:100FE00000B583B06A4601216123181AC0B208F027
:100FF000EEFC0190534801A90A7802704A784270C9
:1010000068460078401E04F071FA0022A34B04F0F9
:1010100065F902000B000020A14904F051F904F029
:101020000BFB0EBD1CB504006A460121622008F0CE
:10103000CEFC68460078F82101400C4368460470F5
:101040006A460121622008F0F0FD01903D4801A9A7
:101050000A7802704A78427013BD00B583B06A46C0
:101060000121622008F0B3FC01908E4801A90A78A2
:1010700002704A784270684600784007400F0EBD03
:101080001CB504006A460221622008F0A0FC6846F4
:10109000012C07D101789F220A4002704178022278
:1010A0000A4302E04178FD220A4042706A4602216A
:1010B000C8E71CB504006A460221622008F087FCDC
:1010C0006846012C017809D1BF220A402021114332
:1010D00001704178FD220A40427002E0DF220A409E
:1010E00002706A460221ADE730B583B005000C00FE
:1010F0006A460121682008F06AFCDF202021012DCA
:101100006A46127801D10A4300E002406B461A7029
:10111000012C05D16846007801436846017004E05F
:10112000694609780840694608706A4601216820C6
:1011300008F07BFD01905B4801A90A7802704A78AB
:10114000427037BDB009002001B582B06846007A10
:10115000000105E001B582B06846007A0007000F83
:101160006946087202AA0121692008F05EFD00901C
:101170004C4869460A7802704A78427007BD01B54A
:1011800082B002AA01216A20EFE701B582B002AA6B
:1011900001216B20E9E710B582B004006A46012105
:1011A000142008F014FC684621780129017802D146
:1011B00040220A4301E0BF220A40027061780129FF
:1011C000017803D180220A43027002E04906490EE9
:1011D0000170A1780029017802D1DF220A4001E0E4
:1011E00020220A430270E178417021790901627975
:1011F0000A4382706A460321142008F016FD00900D
:101200002848694624E710B582B004006A460321E5
:10121000142008F0DCFB68460178C9096170017888
:101220004906CA0F2270017820221140A17041782E
:10123000E17081780909217180780007000F6071E1
:1012400013BD1CB504006A4601211F2008F0BFFB36
:10125000684600789F210140600108436946087094
:101260006A4601211F20EEE600B583B06A460121DF
:101270001F2008F0ACFB01900A4801A90A7802700F
:101280004A784270684600784006800F0EBD000024
:101290002002002001005841000060410000E03FB2
:1012A00000002C40B00900201CB5694600220A80CD
:1012B00010220378012B00D10A700B78C4781C43EC
:1012C0000C702346447864011C430C704379012B55
:1012D00000D14A704B7802791A434A7080784001F5
:1012E000104348706A4602212020ACE610B582B057
:1012F00004006A460221202008F069FB01206946AB
:101300000978090901220A4022700F216A461278E1
:101310000A40E2706A461278520962706A46127890
:1013200012091040607168460078014021716846DA
:1013300000784009A07013BD80B56A4601218E2057
:1013400008F045FB0149086001BD00BFB00900205D
:101350000120A749487170470120A549487270478C
:10136000A44A904201DB08207047A348021D0A608E
:101370000178491C0170002070479F480178491E80
:1013800001700020704770B504000D00160008F0D1
:10139000BBFA20800020288008F0B4FA30800020BA
:1013A00070BD0000F1B58CB0914CE068002802D10E
:1013B000FFF7DBFDE060012008F042FB022008F0AF
:1013C0007FFA002008F03CFB00220021207908F081
:1013D0009DFA2069E568FA21890003F0C1FD3921F1
:1013E0004843281AFFF7BEFD8448029001A800BFB9
:1013F00074A10A68026001AA0121607808F015FC56
:1014000001AD6A1C0121A07808F00FFCAA1C012183
:10141000E07808F00AFC0727882602A80CA90978BA
:10142000002973D1602101717548049080000590F6
:101430007448069002A8FFF737FA042002F073FB05
:101440006A460121112008F0C2FA6846007880211E
:101450000143684601706A460121112008F0E5FB4E
:10146000684607706A460121622008F0DEFB6A4682
:101470000121632008F0ABFA68460078FD210140A5
:10148000684601706A460121632008F0CEFBD72030
:10149000694608706A460121652008F0C6FB9C2059
:1014A000694608706A460121762008F0BEFB2820B4
:1014B000694608706A460121772008F0B6FBC8200B
:1014C000694608706A460121642008F0AEFBA079E5
:1014D000002817D0A079082814DAA0790001022189
:1014E0000143684601706A460121792008F09DFB9E
:1014F000A079052806DB684606706A46012164204B
:1015000008F093FB0E2002F059F858E020250571F1
:10151000962080000490C8300590E079002801D022
:10152000B24801E0FA20C000069002A8FFF7BCF91B
:10153000E079002805D0684605706A4601212E2012
:101540003BE007A820A1102203F01EFD07A802F02F
:1015500043FC0F2002F0CAFD002469460C706A4665
:1015600001211F2008F061FB684607706A460121CF
:10157000182008F05AFB7020694608706A4601215D
:10158000212008F052FB684605706A4601212020A0
:1015900008F04BFB69460C706A460121142008F0E4
:1015A00044FB684606706A460121762008F03DFB40
:1015B000684604706A460121772008F036FB002057
:1015C0000DB0F0BD92522A0020001000000027B29A
:1015D000000000000000000080B5672008F069F9F5
:1015E000012008F02DFA0020BF49487202BD00001A
:1015F00028020020E9030000B409002040AEBF33F8
:10160000B80B000010270000F3B581B000260020C1
:1016100000E0401C6946097AC0B28842F9D37220C2
:1016200001F046FFB04C21001431102008F0F6FA0A
:10163000B44D2900502008F0F1FA00BF40A0006826
:101640000090207969460870684601F0E5FF0122A4
:101650000121207908F05AF9602008F02AF9667211
:10166000607A0028FCD0667250352900402008F0CE
:10167000D5FA7F20AF490870002709E00022B4495D
:10168000522008F0E6F96D1E6DB2002D05D57F1CC5
:101690006846007A874218DA07250198C15DE9405B
:1016A000C807C00F6672617A0029FCD066720028F4
:1016B000E4D1A0480078812801D17F2000E081207A
:1016C0009C4908700022A349DAE76672607A002814
:1016D000FCD0667200229E49122008F0BAF96672A8
:1016E000607A0028FCD066729B4D2900502008F0DB
:1016F00095FA6672607A0028FCD06672503529002F
:10170000402008F08BFA6672607A0028FCD066727E
:1017100021001431202008F081FA6672607A0028D6
:10172000FCD06672672008F0C4F8722001F0C0FE99
:1017300001220021207908F0E9F80020FEBD000018
:101740000002300080B5002806D0022809D003D35B
:10175000042801D003D308E0FF20E23003E07F48F3
:1017600001E0F420C00008F0ABF8002002BD10B585
:101770000400FFF7E1FD7A480078400805D06720B3
:1017800008F097F8622008F094F82000FFF795FA27
:10179000002010BD80B508F0B1F8002002BD10B5E2
:1017A0000C000021012802D0022802D002E004210E
:1017B00000E00821080008F0EBF82080002010BDB0
:1017C00080B50022012802D0022802D002E00422C3
:1017D00000E00822100008F0E3F8002002BD4249B2
:1017E00009783E390170002070470000400D030069
:1017F000F1B582B00027002528A0006801903A4C7E
:1018000020796946087101A801F006FF0121012035
:1018100001F05EFF0121480301F05AFF002201217F
:10182000207908F073F86771712008F042F8684673
:1018300001F087FF6772612008F03BF86E4604E014
:1018400071784909014200D001256079002801D052
:10185000002D18D008F09AF9607A0028F5D0677248
:10186000684601F06EFF012031780142E8D001F0B6
:101870002DFE029908F0A4F822000121A22008F010
:10188000A6F8002255E7672008F013F8002200218F
:10189000207908F03BF86820FEBD0000000200003F
:1018A0000020704780B5C2490122CA710A7A002A15
:1018B00002D14A7108F02CF9002002BD80B5BC4964
:1018C00000224A7101220A72FA218900414308006C
:1018D00008F01EF9002002BD80B508F04DF9002087
:1018E000B3494871087202BD2802002010B5B04CFF
:1018F000207A002801D108F03FF900206071E071E2
:10190000207210BDD403002080B501E008F03EF93C
:10191000A74840790028F9D0002002BD704780B563
:10192000A34909783E3949B26439FFF7F7FF00202F
:1019300002BD0000CE02002010B500229D4B9C5C31
:101940008454521C032AFADB0320087010BD0000E7
:10195000F00200209C020020440300208C0F0000B5
:10196000B009002074B587B00600002909D16720AE
:1019700007F09FFF022007F0A3FF012008F060F8A6
:10198000B8E08B4CE068002802D1FFF7EEFAE06087
:10199000012008F055F8022007F092FF002008F01F
:1019A0004FF800220021207907F0B0FF01A800BF06
:1019B00088A10A68026001AA0121607808F035F95F
:1019C00001AD6A1C0121A07808F02FF9AA1C0121A1
:1019D000E07808F02AF96846007F212802DA212001
:1019E000694608772069E568FA21890003F0B8FAAA
:1019F00039214843281AFFF7B5FA0296702002A948
:101A00000871FA2040000490800005906A48069012
:101A100002A8FEF749FF0C2002F085F86A46012172
:101A2000632007F0D4FF68460078FD210140684636
:101A300001706A460121632008F0F7F80720694623
:101A400008706A460121622008F0EFF8C820694654
:101A500008706A460121642008F0E7F8A0790028A0
:101A600018D0A079082815DAA079000102210143D5
:101A7000684601706A460121792008F0D6F8A079FD
:101A8000052807DB8820694608706A460121642022
:101A900008F0CBF86A460121112007F098FF68464C
:101AA000007880210143684601706A4601211120B7
:101AB00008F0BBF8D720694608706A460121652006
:101AC00008F0B3F89C20694608706A460121762028
:101AD00008F0ABF82820694608706A460121772093
:101AE00008F0A3F807AA01215A2008F09EF8602008
:101AF00007F0DFFE08B070BD2D49887170470428DB
:101B000001DB2E4870472A490871002070470428DD
:101B100001DB2A4870472649487000207047042896
:101B200001DB26487047224988700020704704284E
:101B300001DB224870471E49C87000207047F0B58D
:101B40001F4BD9780918232901DA1E48F0BD00215E
:101B500000241D19EE783718DC2F01DA3618EE70E4
:101B6000194D2D19EE783718DC2F01DA3618EE7082
:101B7000A41C502CEDDB154B5B185C782518DC2D74
:101B800001DA24185C70124B5B185C782518DC2D88
:101B900001DA24185C70891C9029ECDB0020F0BD70
:101BA0000349C86000207047014908610020704760
:101BB000280200202402002010270000FD800000E1
:101BC0009C020020FE800000F00200204403002060
:101BD000D403002092522A00F8B50026A14DA24855
:101BE000B200A918036B9A1813780B7053784B70D6
:101BF00093788B70D278CA70761C042EF0D32C2E7A
:101C000038D2B0002C180422211F684603F0BCF91A
:101C10006846B10719D10378417801708178417025
:101C2000C2788270C37000BF90A30778DF5D077031
:101C3000595C4170995C8170C178595CC1700178C0
:101C400038A2B308D25C4A400270210010390A78E9
:101C5000037853402370641C4A78437853402370C0
:101C60008A78837853406370C978C0784840A07000
:101C7000761CC4E7F1BD0000F8B5002000227A4BC5
:101C8000196B1B7804E08C5C764DAD1AEC73521C1A
:101C90001024E41AA242F6D1724D03E014180C5D30
:101CA0002C54401C9842F9D3042400BF6FA56E4603
:101CB0006C48A10047180422391F684603F064F9F4
:101CC000A00718D1327870783070B0787070F178E1
:101CD000B170F2703278AA5C3270285C7070685C07
:101CE000B070F078285CF070307800BF0DA1A208C9
:101CF000895C4140317038001038017832784A40B0
:101D00003A707F1C417872784A403A708178B27894
:101D10004A407A70C078F1784140B970641C2C2C2C
:101D2000C6D3F1BD8D01020408102040801B366C23
:101D3000D8AB4D9A2F5EBC63C697356AD4B37DFA93
:101D4000EFC5913972E4D3BD61C29F254A943366D1
:101D5000CC831D3A74E8CB8D01020408102040802A
:101D60001B366CD8AB4D9A2F5EBC63C697356AD4D0
:101D7000B37DFAEFC5913972E4D3BD61C29F254AA4
:101D8000943366CC831D3A74E8CB8D0102040810AD
:101D90002040801B366CD8AB4D9A2F5EBC63C69733
:101DA000356AD4B37DFAEFC5913972E4D3BD61C20F
:101DB0009F254A943366CC831D3A74E8CB8D01028B
:101DC0000408102040801B366CD8AB4D9A2F5EBCA7
:101DD00063C697356AD4B37DFAEFC5913972E4D3FF
:101DE000BD61C29F254A943366CC831D3A74E8CB0B
:101DF0008D01020408102040801B366CD8AB4D9A30
:101E00002F5EBC63C697356AD4B37DFAEFC59139AE
:101E100072E4D3BD61C29F254A943366CC831D3AD8
:101E200074E8CB00F1B500200E490F4A002384006E
:101E3000D56A2D19ED182E786F463F783F013F196E
:101E4000FF18CF5D77402F705B1C042BF0DB401C2C
:101E50000428EBDBF1BD000070B50021024A00BF91
:101E600002A35EE3A00D002064040020637C777B66
:101E7000F26B6FC53001672BFED7AB76CA82C97D86
:101E8000FA5947F0ADD4A2AF9CA472C0B7FD932617
:101E9000363FF7CC34A5E5F171D8311504C723C31B
:101EA0001896059A071280E2EB27B27509832C1A5F
:101EB0001B6E5AA0523BD6B329E32F8453D100EDB9
:101EC00020FCB15B6ACBBE394A4C58CFD0EFAAFB9D
:101ED000434D338545F9027F503C9FA851A3408F65
:101EE000929D38F5BCB6DA2110FFF3D2CD0C13EC7D
:101EF0005F974417C4A77E3D645D197360814FDC12
:101F0000222A908846EEB814DE5E0BDBE0323A0AF5
:101F10004906245CC2D3AC629195E479E7C8376D79
:101F20008DD54EA96C56F4EA657AAE08BA78252E9E
:101F30001CA6B4C6E8DD741F4BBD8B8A703EB56627
:101F40004803F60E613557B986C11D9EE1F8981118
:101F500069D98E949B1E87E9CE5528DF8CA1890D07
:101F6000BFE6426841992D0FB054BB162C48C06A99
:101F7000417842794270427A4271427B42724173A7
:101F80008178827A827081728179827B8271817399
:101F9000C178C27BC270C27AC273C279C272C17187
:101FA00070474100C0091B2250434840C0B27047EF
:101FB000F8B500241A4FF86AA10045182978684638
:101FC000017068784840A9784140EE784E40FFF7AC
:101FD000E8FF2978320042404A402A706978A878A0
:101FE0004840FFF7DEFF6978320042404A406A709D
:101FF000A978E8784840FFF7D4FFA978320042403A
:102000004A40AA70E978684600784840FFF7C9FF5F
:10201000E97846404E40EE70641C042CCBDBF1BDE9
:1020200064040020F0B585B000200390004801E072
:1020300064040020C06A0399890040180290007867
:102040006946C87002984078887002988078487015
:102050000298C07808706846C078FFF7A2FF0700B2
:102060006846C078FFF79DFFFFF79BFF6946087140
:102070006846C078FFF795FFFFF793FFFFF791FFE2
:10208000694648716846C078FFF78BFFFFF789FF04
:10209000FFF787FFFFF785FF68468078FFF781FF2E
:1020A0006946887168468078FFF77BFFFFF779FF04
:1020B00068468078FFF775FFFFF773FFFFF771FF42
:1020C0006946C87168468078FFF76BFFFFF769FFC4
:1020D000FFF767FFFFF765FF68464078FFF761FF8E
:1020E00068464078FFF75DFFFFF75BFF0400684636
:1020F0004078FFF756FFFFF754FFFFF752FF050048
:1021000068464078FFF74DFFFFF74BFFFFF749FFA9
:10211000FFF747FF68460078FFF743FF68460078FF
:10212000FFF73FFFFFF73DFF68460078FFF739FFF5
:10213000FFF737FFFFF735FF060068460078FFF727
:1021400030FFFFF72EFFFFF72CFFFFF72AFF68464F
:10215000007978406946497941406846807848402E
:102160006946897941406846C0794840694649785E
:1021700041404C40654068460078684046400298BF
:1021800006706846C078FFF70CFF6846C078FFF716
:1021900008FFFFF706FF6846C078FFF702FFFFF76A
:1021A00000FFFFF7FEFE07006846C078FFF7F9FE64
:1021B000FFF7F7FEFFF7F5FEFFF7F3FE68468078BE
:1021C000FFF7EFFE6946C87168468078FFF7E9FEC1
:1021D000FFF7E7FE6946887168468078FFF7E1FE01
:1021E000FFF7DFFEFFF7DDFE69464871684680783D
:1021F000FFF7D7FEFFF7D5FEFFF7D3FEFFF7D1FEBF
:1022000068464078FFF7CDFE694608716846407819
:10221000FFF7C7FEFFF7C5FE68464078FFF7C1FE2F
:10222000FFF7BFFEFFF7BDFE040068464078FFF7EA
:10223000B8FEFFF7B6FEFFF7B4FEFFF7B2FE684642
:102240000078FFF7AEFE68460078FFF7AAFEFFF7BA
:10225000A8FE050068460078FFF7A3FEFFF7A1FE81
:10226000FFF79FFE060068460078FFF79AFEFFF72B
:1022700098FEFFF796FEFFF794FE6846C078474049
:102280006846C07978406946897941406846407916
:102290004840694649784140684600794840444092
:1022A00068460078604045406E4002984670684637
:1022B000C078FFF776FE6846C078FFF772FEFFF73A
:1022C00070FE07006846C078FFF76BFEFFF769FEF7
:1022D000FFF767FE694608716846C078FFF761FE40
:1022E000FFF75FFEFFF75DFEFFF75BFE6846807855
:1022F000FFF757FE68468078FFF753FEFFF751FE61
:1023000068468078FFF74DFEFFF74BFEFFF749FE6A
:102310006946487168468078FFF743FEFFF741FE43
:10232000FFF73FFEFFF73DFE68464078FFF739FEB6
:102330006946887168464078FFF733FEFFF731FE43
:102340006946C87168464078FFF72BFEFFF729FE03
:10235000FFF727FE040068464078FFF722FEFFF7EC
:1023600020FEFFF71EFEFFF71CFE68460078FFF711
:1023700018FE050068460078FFF713FEFFF711FE10
:1023800068460078FFF70DFEFFF70BFEFFF709FE2A
:10239000060068460078FFF704FEFFF702FEFFF72D
:1023A00000FEFFF7FEFD6846C078474068460079AA
:1023B0007840694689784140684640794840694696
:1023C000897941406846C079484044406846007871
:1023D000604045406E40029886706846C078FFF7BE
:1023E000E0FD6946C8716846C078FFF7DAFDFFF77F
:1023F000D8FD6846C078FFF7D4FDFFF7D2FDFFF7A0
:10240000D0FD694688716846C078FFF7CAFDFFF7BE
:10241000C8FDFFF7C6FDFFF7C4FD68468078FFF7EB
:10242000C0FD68468078FFF7BCFDFFF7BAFD69463E
:10243000487168468078FFF7B4FDFFF7B2FDFFF7FB
:10244000B0FD6946087168468078FFF7AAFDFFF77E
:10245000A8FDFFF7A6FDFFF7A4FD68464078FFF74B
:10246000A0FD68464078FFF79CFDFFF79AFD68469F
:102470004078FFF796FDFFF794FDFFF792FD070008
:1024800068464078FFF78DFDFFF78BFDFFF789FD6C
:10249000FFF787FD68460078FFF783FD0400684674
:1024A0000078FFF77EFDFFF77CFD050068460078A9
:1024B000FFF777FDFFF775FDFFF773FD0600684630
:1024C0000078FFF76EFDFFF76CFDFFF76AFDFFF781
:1024D00068FD6846C0786946C97941406846807998
:1024E0004840694689784140684640794840694695
:1024F0000979414068464078484047407C40654003
:102500006E400298C6700398401C0390042800DABD
:102510008CE505B0F0BD000070B50021BB4A00BFDE
:1025200007A30024D56A6D18A600AD192E789E5D0C
:102530002E70641C042CF5DB491C0429F1DB70BDF2
:1025400052096AD53036A538BF40A39E81F3D7FB28
:102550007CE339829B2FFF87348E4344C4DEE9CB72
:10256000547B9432A6C2233DEE4C950B42FAC34EE7
:10257000082EA16628D924B2765BA2496D8BD1259D
:1025800072F8F66486689816D4A45CCC5D65B69241
:102590006C704850FDEDB9DA5E154657A78D9D84E5
:1025A00090D8AB008CBCD30AF7E45805B8B3450605
:1025B000D02C1E8FCA3F0F02C1AFBD0301138A6B1F
:1025C0003A9111414F67DCEA97F2CFCEF0B4E6734F
:1025D00096AC7422E7AD3585E2F937E81C75DF6EFD
:1025E00047F11A711D29C5896FB7620EAA18BE1B63
:1025F000FC563E4BC6D279209ADBC0FE78CD5AF409
:102600001FDDA8338807C731B11210592780EC5F4E
:1026100060517FA919B54A0D2DE57A9F93C99CEFAA
:10262000A0E03B4DAE2AF5B0C8EBBB3C83539961AB
:10263000172B047EBA77D626E169146355210C7DE9
:102640007248C06A417B427A427342794272427850
:10265000427141708178827A827081728179827B45
:1026600082718173C178C279C270C27AC271C27B31
:10267000C272C173704710B50020FFF7D3FB01246D
:10268000FFF7EAFBFFF772FCFFF792FC2000FFF771
:10269000C9FB641C0A2CF3DBFFF7DEFBFFF766FCCB
:1026A0000A20FFF7BFFB10BD10B50A20FFF7BAFBE9
:1026B0000924FFF7C5FFFFF72FFF2000FFF7B2FB4C
:1026C000FFF7B0FC641EE4B2002CF2D1FFF7B8FFB4
:1026D000FFF722FF0020FFF7A5FB10BD00228B5C57
:1026E0008354521C102AFADB704730B50021474A48
:1026F00043181C78556B6D5C65401D70491C102992
:10270000F6DB30BDF4B582B004000E001007000FF8
:1027100000902000FFF7E2FF3C4FFC62FFF7ACFAAD
:10272000B86B786300250DE03000FFF7DEFF310065
:102730002000FFF7D3FFFC62FFF79DFF7C6310369C
:102740001034103502988542EED3009800280DD041
:1027500031002000FFF7C2FF10200099411A0098B5
:10276000201802F02AFCFC62FFF785FFF7BDF5B5E3
:1027700085B00E001007000F009001AC01A8FFF714
:10278000ADFF224F01A8F862FFF726FAB86B786315
:1027900000250DE031002000FFF7A0FFFC62FFF7ED
:1027A00083FF2000FFF7A1FF7E6310361034103541
:1027B00006988542EED3009800280DD03100200005
:1027C000FFF78CFF10200099411A0098201802F0A2
:1027D000F4FBFC62FFF768FF0020397801AA05E0EE
:1027E000131ADB7B059C2354401CC0B210235B1AD8
:1027F0009842F5D1002304E0D45C059DC618AC5581
:102800005B1CDBB28B42F7D307B0F0BD6404002041
:1028100002684068121800208300CB58D218401C70
:102820000828F9D3D0437047F0B593B004000E00E8
:1028300015006A460421F820400003F001FC0BAAB1
:102840002021080103F0FCFB01AA0821062003F067
:10285000F7FB0BA901A8FFF7DBFF0B992160002212
:10286000002906D00023DB43994202D00099884218
:1028700002D0226001205FE000200BA90B181B7919
:102880003354401C0828F9DB0F230E7B0F20304007
:1028900000D10120287003AD20689600A851521C79
:1028A000042AF9DB2068079007AA01AD101DC0CDEE
:1028B000C0C02068C4430A94D07B0C7B872C01DA0B
:1028C000044300E00440D473107B4C7B192C01DAE4
:1028D000044300E00440147303A8027A8C7B802C2C
:1028E00001DA144300E014400472C27ACC7B802CDD
:1028F00001DA224300E02240C2722340022B01DAB7
:10290000022302E00E2B00DB0D231B4C2370A0637F
:1029100007A820631022103120001430FFF727FF92
:10292000201D00210022002300252EC0201DA063B1
:10293000200014302063002013B0F0BD80B50E4B92
:102940001B6B002B01D1012002BDFFF7DBFE002035
:1029500002BD00B585B0002807D0074810210170DE
:1029600001003C310163002004E06A4602A901A88D
:10297000FFF75AFF05B000BD64040020F0B583B036
:1029800004000F00002669460E608E80734D287883
:10299000002801D01420ABE0002F01D11120A7E0C6
:1029A000002C01D11720A3E0891C0120FEF7F7FEBF
:1029B000002802D00102122024E068464088000569
:1029C000000D694648800020FEF7E9FE002802D08D
:1029D0000102132016E0A07B012808D101A90220E2
:1029E000FEF7DDFE002802D0010215200AE0291DB5
:1029F0009C20FEF7B5FC6968002901D0002804D0AE
:102A000001021020084380B272E0A07B042801D1AB
:102A1000022000E001202870684640888C228852FD
:102A200008000830694609884182A17B012926D126
:102A3000B94901604660866001218182C676684698
:102A40000088800A69682222885468460088410606
:102A5000490E6868C18301D0572901DB818BC1838E
:102A600069460988C905890FC28B521E53009A18FE
:102A700052008918018469468988418306E0022949
:102A800004D103210160A5494160866038786968F6
:102A90002A228854787869682B228854B878696823
:102AA0002C228854F87869682D22885468688E2111
:102AB000465468682168016061684160A17B8F228B
:102AC000815401009031A2680A60A2898A80AA21FB
:102AD00042228154686843228154A068B5498842E3
:102AE00008D1686896303C210180B64941800020B9
:102AF00003B0F0BDB449884206D168689630082119
:102B00000180FA21C900F1E7B549884205D168681A
:102B100096303C2101808149E8E71620E8E710B5AE
:102B20000E4C2078002816D060688E21405C012869
:102B300006D1FEF751FD002802D00102212006E057
:102B40006068FEF71AFC002804D001022020084328
:102B500080B210BD2070002010BD0000500E00207B
:102B6000F6B587B000210025B34C2278022A01D0A7
:102B70003120BCE0002801D13920B8E06E46367F14
:102B8000002E04D00D2E01DB3020B0E001210EAE6E
:102B900036780596012E09D1032B05DB0226089B0A
:102BA000002B04D13220A2E01E00F8E70226039297
:102BB00004AA921C029204AA019200910EA90B7819
:102BC00069460A7F0100606801F02AFD002802D0F2
:102BD0000102332085E00327277060688F21405C65
:102BE00002280DD1606808300168002902D04568CC
:102BF000062D01D23A207AE08168FF22914381605C
:102C0000A8B20290019700960EA803786846027C4D
:102C1000017F606801F0D2FB002810D00F210F2245
:102C200002400F2A01D13F2061E001400D2903D16C
:102C3000022020703B205AE00102342051E0059828
:102C4000012851D10420207004236846428A089943
:102C5000606801F09DFD00280AD00107090F0E29C8
:102C600003D1022020703E2041E00102352038E0EF
:102C7000022602202070FEF765FD002802D0010226
:102C800036202EE02078039004A8801C029004A82F
:102C900001900096012308220021606801F0C0FC29
:102CA000002802D0010237201BE060688F21415CC0
:102CB000022900D1614D2770ADB202950197002124
:102CC0000091002369460A7C0D2101F077FB002862
:102CD0000AD00107090F0D2901D126703B200102FE
:102CE0003820084380B202E002202070002009B0A2
:102CF000F0BD1CB5801C6C462071009313000A00C7
:102D0000002101A8FFF72CFF010003D04C4901402E
:102D10004020084316BD0000FF010000881300009A
:102D200030B585B00025444C2078022801D05120D0
:102D30003EE0039004A8801C029004A801900220A9
:102D40000090002307220021606801F069FC002840
:102D500003D001025320084325E060688F21415CC5
:102D6000022900D1C56803212170ADB202950191FD
:102D700002210091002369460A7C0D2101F01EFB0F
:102D8000002812D00F210F2202400F2A01D15F200C
:102D900009E001400D2903D1022020703B2002E010
:102DA00001025420084380B202E00220207000207B
:102DB00005B030BD00EE0200224A02600B20087010
:102DC0000020704708520000D43000001A480178F3
:102DD000002903D00121406823228154002070473C
:102DE000A08C000070B4144A1378002B1FD05368D5
:102DF0001C00083405682560456865608068A0602F
:102E0000C00509D51800903005680F4EB54203D1B2
:102E10000E4D05600E4D05818F20185C012806D1EE
:102E2000080001D0572901DB902003E0A182022095
:102E30001070002070BC7047500E0020280A00005F
:102E40000FFF0000B0040020A08C000000EE020084
:102E500008520000F0B587B00D0000216A461174D9
:102E60000026518291820027664C2178022901D0E8
:102E7000B120C7E2052800D9C1E202A14000095AE9
:102E80008F4400BF0C0000016202C00268039C0472
:102E9000052020705C48008B010A62684423D154ED
:102EA0006168452288540020FEF77CFA002800D093
:102EB0003DE2012061688E228854616808688F2293
:102EC0008A5C012A04D1898B491E504A514340181B
:102ED000FEF74DFC002802D00102A12088E27F27E6
:102EE0003D4239D02F408020284069460870484D27
:102EF00004206946087401232A000121300001F0F2
:102F000077FE060061686A46127C8918422288545E
:102F10006846007C401C694608746846007C192895
:102F2000E9DBAA2061685B2288541A21606842307C
:102F3000FEF76AFB002802D00102A22058E2684690
:102F40000078002806D1FEF7FDFB002802D0010220
:102F5000A3204DE27F1ECBD1FEF73EFB002800D11F
:102F600049E20102A42043E26846007C30306168F7
:102F70006A46127C8918802288546846007C401C6E
:102F8000694608746846007C0C28EDD3280000D1FF
:102F900035E20695022769460F7100200090022352
:102FA0000022002101A8FFF7DBFD010003D0194931
:102FB000014040200843002800D023E20320694656
:102FC00008710020009002230022002101A8FFF7D1
:102FD000C7FD010003D00F490140402008430028ED
:102FE00000D00FE2FFF79CFE002800D00AE201208B
:102FF000694608746846067C0025217802290BD0B2
:1030000031205DE0500E0020CC450008E093040024
:10301000FF0700000FFF000060680200803201D14E
:1030200039204DE0320001D1002204E00D2E01DBF9
:10303000302045E00122039104A9891C029104A9D2
:10304000491C01910092002332000100803101F0FF
:10305000E7FA002802D0010233202EE0032020707E
:1030600060688F21415C02290BD1010008310A6898
:10307000002A19D04D68062D16D38A68FF239A437B
:103080008A60ADB202950321019100970023694641
:103090004A7C310001F092F9002810D00107090F95
:1030A0000F2903D13F200BE03A2009E00D2902D17E
:1030B00027703B2004E001023420084300E0277021
:1030C00080B2002800D09DE16846007C401C694623
:1030D00008746846007C0D288CD30698401E069024
:1030E00000D18CE157E7280000D188E169460E74D1
:1030F0006846007C303061686A46127C89188022FC
:1031000088546846007C401C694608746846007C08
:103110000C28EDD360680121009102230200803267
:103120000C218030FFF71CFD401E8041C00FFEF7D0
:10313000F6FB002802D00102C02059E16D1E00D12B
:103140005DE1D3E7062020700120FEF72BF900286F
:1031500002D00102D0204BE1012061688E22885408
:1031600060684068FEF703FB002802D00102D1200E
:103170003EE12800FEF7A2FB002802D00102D22087
:1031800036E160684230FEF733FB00280BD0FEF7D3
:10319000A3FB002827D1FEF71FFA002800D12AE15F
:1031A0000102D52024E10120BE49BF4A63684233B1
:1031B0000F250E7837073F0FBC4616783701F026EB
:1031C0003E4067463E431F78BE4200D000205B1C55
:1031D000521C491C6D1EECD1FEF7A1FB0028D0D07B
:1031E0000102D32004E10102D42001E1A800461924
:1031F0007600616880228F54616881228F546168F3
:1032000082228F54616883228F54616884228F5494
:10321000616885228F54616886228F546168872295
:103220008F540025300400D1E9E0B6B2701E06903C
:103230006068873006998D4201D1232100E000218A
:1032400001700720207060680721039105A9029191
:1032500004A901910121009101230822010080317C
:1032600001F0DEF9002802D00102E020C0E0029067
:10327000207801900020009001236846027C0821FC
:10328000606801F09BF8002802D00102E120AFE065
:10329000082020706068082369468A8A010080310E
:1032A00001F076FA002806D06846408A401C69463C
:1032B0004882002001E07F1C0120FEF730FB00283F
:1032C00002D00102E22093E004A8FEF788FA002869
:1032D00002D00102E3208BE03804000E61688222F4
:1032E0008854616883228F546846007C6168842218
:1032F00088546846408A000A616885228854684676
:10330000408A6168862288540320FEF71BFA002851
:1033100002D00102E4206BE06D1CB5426FDA87E752
:10332000092020700020FEF73DF8002802D001029D
:10333000A0205DE0012061688E2288540021606831
:1033400001F02EF8050001E06D1CADB200216068AF
:1033500001F012F8401C854244DA606801009031A7
:1033600000680A685208801A898869434618300044
:10337000FEF7FDF9002802D00102F12038E0616873
:1033800080228E54300A616881228854300C616832
:1033900082228854300E61688322885460682178C4
:1033A000039105A9029104A9019101210091002333
:1033B00004220100803101F033F9002802D001021B
:1033C000F22015E0029020780190009700236846D3
:1033D000027C0421606800F0F1FF0028B4D00102F3
:1033E000F32005E0FEF7F8F8002804D00102F420ED
:1033F000084380B206E0002061688E2288540220D3
:103400002070002007B0F0BD10B4002101702749E2
:103410000A78002A43D04A688F23D35C012B37D126
:103420002223D25CD20701D41022027001224B6801
:1034300022241B5D5B08134002D103781033037014
:103440004B681B5D9B08134002D103781033037057
:103450004B681B5DDB08134002D103781033037007
:103460004B681B5D1B09134002D1037810330370B6
:103470004B681B5D5B09134002D103781033037066
:103480004B68DC8B9B8B9C4202D003781A43027002
:1034900049688F228A5C022A01D1096901700020E3
:1034A00010BC70476843000858430008500E0020C5
:1034B00080B506F0FEF90090034869460A7802706C
:1034C0004A78427001BD00BFB009002000B583B04A
:1034D0006A460121902004E000B583B06A460121CC
:1034E0008F2006F074FA0190274801A90A7802702B
:1034F0004A784270684600780EBD1CB504006A46E2
:1035000001213C2006F063FA6846007880210840DB
:103510000443684604706A4601213C2016E000B569
:1035200083B06A4601213C201FE01CB504006A46B6
:1035300001213D2006F04BFA6846007880210840C2
:103540000443684604706A4601213D2006F06DFB85
:1035500001900D4801A90A7802704A78427013BDA3
:1035600000B583B06A4601213D2006F030FA019093
:10357000054801A90A7802704A78427068460078C6
:103580004006400E0EBD0000B00900201CB504002E
:103590006A4601213E2006F01AFA6846007880212A
:1035A00008400443684604706A4601213E20CDE786
:1035B00000B583B06A4601213E20D6E71CB5040061
:1035C0006A4601213F2006F002FA68460078802111
:1035D00008400443684604706A4601213F20B5E76D
:1035E00000B583B06A4601213F20BEE71CB5040048
:1035F0006A460121392006F0EAF9012C6846007874
:1036000002D10421014301E0FB2101406846017021
:103610006A460121392099E700B583B04178827864
:103620000A4369460A7101AA0121007837E000B512
:1036300083B0012901D19B2100E0A3216A461170CA
:10364000012106F0F2FA0190614801A92CE000B5D1
:1036500083B000216A461170012106F0B8F901908B
:103660005B4801A90A7802704A784270684600787F
:10367000F8210140982901D101200EBD00200EBD86
:1036800000B583B001A900220A60002804D000928E
:103690006946042201F078FC01AA0421502006F0BA
:1036A000C4FA00904A4869460A7802704A78427023
:1036B00007BD80B50021425C6B465B1ADA70491C7D
:1036C0000429F8DB6A460421502006F0AEFA56E0E1
:1036D000F8B507000E00002500246A46042150209A
:1036E00006F075F9002069460B5C9C4603231A1A04
:1036F000D20063469340E418401C0428F4DB002EFB
:1037000001D1BC4301E027433C000320401BC00023
:103710002200C2404A556D1C042DF6DB6A46042186
:10372000502006F082FA0090294869460A78027013
:103730004A784270F1BD1CB504006A46042150204D
:1037400004E01CB504006A460421FA2006F03FF9A3
:1037500001901F4801A90A7802704A78427000203F
:103760006946091AC9782170641C401C0428F7DBDB
:1037700013BD80B56A460421FA2006F028F90090AE
:10378000134869460A7802704A78427001BD30B524
:1037900083B0050000246A460421FA2006F017F9D8
:1037A00001900B4801A90A7802704A784270002003
:1037B0006946095C0322121AD20091406418401C29
:1037C0000428F5DB2540280000D00120C0B23EBD12
:1037D000B009002000B583B06A4601212E2006F012
:1037E000F6F80190B34801A90A7802704A7842704D
:1037F0006846007880096946087006D101F0C7FA6A
:10380000002802D00420694608701DE11CB50400A0
:103810006A4601212B2006F0DAF868460178FC227E
:103820000A40A105890F1143017044706A460221C4
:103830002B2086E000B583B06A4602212B2006F0DB
:10384000C6F801909B4801A90A7802704A78427034
:10385000684601788907890D4078401C084380B28A
:103860000EBD1CB504006A4601212B2006F0AFF8FE
:10387000684600788007800FA10001436846017008
:103880006A4601212B205CE000B583B06A46012125
:103890002B2006F09CF80190BF4801A90A7802701D
:1038A0004A7842706846007880080EBD1CB5040056
:1038B0006A460121302006F08AF8012C684600781B
:1038C00002D11021014301E0EF210140684601705F
:1038D0006A460121302034E01CB504006A4601210B
:1038E000302006F074F8012C6846007802D10121DE
:1038F000014301E0FE210140684601706A46012152
:1039000030201EE01CB504006A4601212F2006F07D
:103910005EF868460078FD21014060000BE01CB5B0
:1039200004006A4601212F2006F051F8684600780D
:10393000FB210140A0000843694608706A46012146
:103940002F2006F072F901905A4801A90A780270F6
:103950004A78427013BD1CB50C000021CA00030058
:10396000D3406A465354491C0429F7DB01AA0121BC
:103970002B2006F02CF8684600798007800FA10004
:1039800001436846017101AA01212B2006F04DF97F
:103990006A460421332006F048F900907E486946C3
:1039A000D4E73EB505000C006A4601212B2006F045
:1039B0000EF8684600788008694608706846007806
:1039C000207001AA0421332006F001F80290724809
:1039D00002A90A7802704A78427001A801780906A3
:1039E000427812040A43817809021143C0780843DF
:1039F000286037BD1CB504006A460121402005F04F
:103A0000E6FF012C6846007802D10121014301E064
:103A1000FE210140684601706A460121402090E77E
:103A200000B583B06A460121AB2004E000B583B045
:103A30006A460121AA2005F0CAFF01901D4801A98C
:103A40000A7802704A784270684600780EBD00B568
:103A500083B06A4601214520EDE700B583B06A4690
:103A600001214320E7E700B583B06A4601214420E5
:103A7000E1E700B583B06A4601214120DBE700B5EC
:103A800083B06A4601214220D5E701B582B002AA7F
:103A90000121412004E001B582B002AA01214220A7
:103AA00006F0C3F800903C4869460A7802704A78EC
:103AB000427007BDB009002001B582B002AA012101
:103AC0004320EDE701B582B002AA01214420E7E7D7
:103AD00001B582B002AA01214520E1E71CB504002E
:103AE0006A4601212E2005F072FF68460078CF213A
:103AF00001400C43684604706A4601212E2020E7ED
:103B000000B583B06A460121302005F060FF0190C6
:103B1000214801A90A7802704A7842706846017803
:103B2000302008400EBD1CB504006A46012130203B
:103B300005F04DFF68460078F32101400C436846CC
:103B400004706A4601213020FBE600B583B06A4666
:103B50000121302005F03BFF01900F4801A90A78B0
:103B600002704A784270684601780C2008400EBD09
:103B700000B583B06A4601219C2005F028FF019022
:103B8000054801A90A7802704A78427068460078B0
:103B90004006400F0EBD0000B00900201CB5040017
:103BA0006A4601212D2005F012FF012C684600789D
:103BB00004D1802101436846017003E04006400EB5
:103BC000694608706A4601212D20BAE61CB504003A
:103BD0006A4601212E2005F0FAFE012C6846007885
:103BE00002D10821014301E0F7210140684601703C
:103BF0006A4601212E20A4E61CB504006A46012174
:103C00002E2005F0E4FE012C6846007802D1042144
:103C1000014301E0FB210140684601706A46012131
:103C20002E208EE61CB504006A4601212E2005F0E8
:103C3000CEFE684600788007800F69460870012C28
:103C40006846007801D1012100E002210143684665
:103C500001706A4601212E2073E61CB504006A46F5
:103C600001212F2005F0B3FE012C6846007802D117
:103C70000121014301E0FE210140684601705DE63B
:103C800010B582B004006A460121302005F09FFE85
:103C900068460078C006C00E0443684604706A4651
:103CA0000121302005F0C1FF13BD80B56A46012116
:103CB000302005F08CFE68460078C006C00E02BDBC
:103CC0001CB504006A460121302005F080FE012C5D
:103CD0006846007802D10221014301E0FD21014044
:103CE000684601706A46012130202AE61CB50400AE
:103CF0006A4601213A2005F06AFE012C68460078E8
:103D000002D10121014301E0FE210140684601701A
:103D10006A4601213A2014E61CB504006A460121D6
:103D20003B2005F054FE012C6846007802D10221A8
:103D3000014301E0FD210140684601706A4601210E
:103D40003B20FEE51CB504006A460121402005F039
:103D50003EFE012C6846007802D11021014301E0AB
:103D6000EF210140684601706A4601214020E8E5E4
:103D700080B50021CA000300D3406A465354491C51
:103D80000429F7DB0421422005F04FFF0090114881
:103D900069460A7802704A78427001BD1CB5040079
:103DA0006A460421422005F012FE0190094801A94B
:103DB0000A7802704A7842706846017809064278AB
:103DC00012040A43817809021143C0780843206035
:103DD00013BD0000B009002070B584B005000020BC
:103DE00000F0D2FF6A4601213A2005F0F0FD0126DD
:103DF0006C4620780121014321706A4601213A2056
:103E000005F013FFA87880002988090A0143217072
:103E100028886070E87AC000A070697A012902D110
:103E200080210143A170E21C01212E2005F0CFFD6D
:103E3000E0780007000FE070221D02212F2005F01E
:103E4000C6FD2179FE202A7A012A02D10A43227175
:103E500001E0014021712179F9220A402271617942
:103E600013220A40A97A114361716A7B012A02D1A7
:103E700010220A4301E0EF220A40627161792A7B35
:103E8000012A02D10E43667101E0084060716A4662
:103E900006212B2005F0C9FE00206968C200D14030
:103EA0002154401C0428F8DB6A460421332005F025
:103EB000BCFE0290A94802A90A7802704A784270B2
:103EC000A87A002800D00120FFF794FD6A4601215E
:103ED000112005F07CFD2078CF21014021706A4639
:103EE0000121112005F0A1FE7FBD3EB5040001AA0D
:103EF00006212B2005F06BFD01AD28788008A0700D
:103F000028788007800D697808432080A978802070
:103F1000084060720120C90801220A40E272297932
:103F200001220A4022726979E0220A40A2720A093B
:103F30000123134063730840207301AA0421332036
:103F400005F045FD0090854869460A7802704A7878
:103F500042700020606061682A5CC3009A400A4396
:103F60006260401C0428F6DB37BD38B505006A46A0
:103F70000121402005F02BFD6C462878012820788F
:103F800002D10221014301E0FD2101402170A87806
:103F90000128207802D10421014301E0FB210140E6
:103FA000217028790128207802D10821014301E0FD
:103FB000F721014021706A460121402005F035FEBD
:103FC0006878207068796070E878A0706A4603218C
:103FD000422005F02AFE0090604869460A78027087
:103FE0004A78427031BD30B583B005006A4603217E
:103FF000422005F0ECFC6C462078687060786871AF
:10400000A078E8706A460121402005F0E0FC0190AC
:10401000524801A90A7802704A784270012021783A
:10402000C90801220A402A712178890801220A4020
:10403000AA70217849080840287037BD00B583B0C0
:104040006A4601212E2005F0C2FC68460078000770
:10405000000F694608706A4601212E2005F0E5FD33
:104060006A460121302005F0B2FC68460078F32151
:104070000140684601706A460121302005F0D5FDF7
:104080000190364801A90A7802704A7842700020EF
:1040900000F07AFE07BD1CB504006A4601212D2000
:1040A00005F095FC0820012C6946097801D10843E8
:1040B00000E00840694608706A4601212D2024E08E
:1040C00000B583B06A4601212D2005F080FC0190E7
:1040D000224801A90A7802704A784270684601783D
:1040E00008200140080000D001200EBD1CB50400CE
:1040F000FFF7E6FF002800D0641C68462104090E83
:10410000017044706A460221312005F08EFD019055
:10411000124801A90A7802704A78427013BD1CB592
:104120006A460221312003E01CB56A460221A42020
:1041300005F04DFC0190094801A90A7802704A78FF
:104140004270684601780C0240780443FFF7B8FFDC
:10415000002800D0641EA0B216BD0000B0090020E7
:10416000F2B582B0060000206946087168460189F0
:10417000300000F078F800210124002776A23300F7
:1041800042330F250097107884461878C8400127DD
:10419000074060467843009F7840C7B25B1C521CC2
:1041A0006D1EEFD170A0C05D30184222825C0123E9
:1041B0008B40534042228354491C0829DDDB3700E1
:1041C0002A3735004A35387F2877787F6877B87F77
:1041D000A877F87FE87730006A302978017069782D
:1041E0004170A9788170E978C17000210171417135
:1041F00028790002697908436946C880A979009145
:104200000A213000463000F013FE0099C9B2814205
:1042100025D13878A8757878E875B8782876F87850
:10422000687668460089A87668460089000AE876BC
:1042300001AB5B1C0E22310060313000603000F0B9
:1042400011FE002801D000200BE06846C088A97D3F
:104250000902EA7D0A43904201D16846047168462A
:10426000007903B0F0BDF1B42A3002784078000242
:1042700010434843C405E40D00D1364C0021009A98
:10428000423280235B000825212626406708202E25
:1042900003D0012E01D0002400E01C003C436D1E21
:1042A000F2D1A4B24D1C16782700EF40774017706A
:1042B00057780126AE40761E2640B4460726751A6A
:1042C0006646AE407E405670491C521C0829DADB17
:1042D0000021009A4B320825212626406708202E0F
:1042E00003D0012E01D0002400E01C003C436D1ED1
:1042F000F2D1A4B24D1C16782700EF40774017701A
:1043000057780126AE40761E2640B4460726751A19
:104310006646AE407E405670491C521C0529DADBC9
:104320000820212222406508202A03D0012A01D03A
:10433000002400E01C002C43401EF2D100985030B5
:104340000278A4B2491CCC40544004700021417052
:10435000F1BC7047FF0100000102040803060C0BCA
:10436000050A070E0F0D09000F0001040208050AD7
:10437000030E0907060D0B0CF0B50D000600903674
:10438000B7883068390000F0D5FD04003089390065
:1043900000F0E6FD201AF1886943401A80B2F0BDB2
:1043A00030B50C0005009435A888298800F0D8FDA8
:1043B00069884C43001980B230BD0000FEB584B05E
:1043C000050000278E304078012801D0012B02D152
:1043D00069460F7102E00120694608710DA8007856
:1043E000009009280BD00DA803786846027E0CA81F
:1043F0000178280000F029FA010000D0E3E06846C7
:10440000008F002840D000266846008FFDF74AFA4A
:10441000010000D0D7E0002407E00420FDF792F966
:104420006846008FFDF73EFA641CE4B2A9688C422E
:104430001ED20220FCF7B6FF010000D0C3E02868BE
:10444000FDF795F9010000D0BDE050210520FDF7F2
:1044500027FA002805D0A868401E8442DDD30D202D
:10446000E2E70126FDF742FA010000D0ABE0641C50
:104470002A695107490FD208E4B21219D2008918EB
:104480002961002E00D19EE000240CA80678701C43
:1044900003906846007D001D694648716846007EAD
:1044A00002900098092811D00020FCF77BFF010042
:1044B00000D088E001208E2168540DA802782100E8
:1044C000280000F04BFB010000D07CE03FA06946D3
:1044D000097C49004018E100091B8900405A010A83
:1044E0004422A95429004431487023006846027DC3
:1044F000290046312800283000F0DEFC684641796A
:1045000028004230FDF780F801005CD128008E3091
:104510004078022802D12869401C2861002C11D162
:10452000029801280ED1009807280ED028008E305E
:104530004078022801D1132000E01420FDF7BEF9D5
:10454000010040D10098092806D0FDF745F8010088
:1045500039D100208E21685468460079FDF7F2F8C1
:10456000010030D128008E304078022822D1B44298
:1045700020DA002C05D1FA204001FDF793F9010063
:1045800021D10220FCF70EFF01001CD12868FDF7A5
:10459000EEF8010017D150210520FDF781F9002820
:1045A00001D0012706E0601CB04203D1FDF79EF95F
:1045B000010008D1641CE4B20398844202DA380096
:1045C00000D16EE7002007B0F0BD00006BA08DA009
:1045D0005FA35FA35FA311A611A611A611A64CA904
:1045E0004CA94CA94CA967AFE0A6D2A098A598A564
:1045F00098A5BFA6BFA6BFA6BFA671A971A971A99C
:1046000071A9C9AF34A002A3A3A5A3A5A3A52CA7F4
:104610002CA72CA72CA797A997A997A997A9BEB1B2
:10462000F0B583B0040016001D0000BF54A0805DEB
:10463000821CD2B202928C22A25A0A9B1A802700B4
:104640002837AA22BA76FA76089A002A18D0022ABF
:1046500022D054D2820168012023184010438C22BA
:10466000A25A120A02433A70300048D020002E307D
:1046700032000B780370491C401C521E3FD0F8E7F3
:104680000878810168012022104008438C21615A7A
:10469000090A0143397032E080018C21615A090A0C
:1046A0000143397000AA921C01A901A8801CFCF7E3
:1046B0006AFE010060D1002D02D10820B87109E026
:1046C0000920B8716846FDF78AF8010054D16846A0
:1046D000007878736846C088F8716846C088000A18
:1046E000387268468088787268468088000AB87296
:1046F00068464088F87268464088000A38738C2003
:10470000205A787000AB5B1CB21DD2B23900200079
:10471000603000F0A7FB01002ED100200299012992
:104720000EDBA1192E3150236A465278120112185D
:10473000A218D25C0A70401C491C029A9042F3DB1A
:1047400002983518A91DC9B2380000F051FB0B4979
:1047500041400298301820182E300A0A0270417029
:104760008C20205A401C8C2160520005000D6052A4
:10477000083509980570002003B0F0BDFFFF000068
:10478000000002010003020100030201000000001A
:10479000FEB504000E001F46082F03D0FDF7B4F845
:1047A00005004FD10120FCF7FDFD05004AD1012095
:1047B0008E2160546846027A0021200000F0CEF974
:1047C00005003FD1082F01D1062007E020008E30E0
:1047D0004078022801D1222000E01920FDF76EF870
:1047E00005002FD120004230FDF702F8050001D06E
:1047F0000E2518E0684681882000FFF7B1FC0128EB
:10480000F0D12000463001783170417871708178A4
:10481000B170C178F170017931714179717181792B
:10482000B171C079F071FDF757F8002803D1FCF79A
:10483000D3FE002804D00102E8B2084380B202E0AF
:104840008E216054280003B0F0BDFBB584B0160083
:10485000002700248F3002900078049D143504282E
:1048600001D002286FD1E888010002D0BA498842FD
:1048700023D1049C6034A87D2070E87D6070287E80
:10488000A070687EE0700498643003210770477060
:104890008770C770001D491EF8D11022210020002A
:1048A000FCF778FF010000D053E160780002217826
:1048B0000843E8804005400DE880049C9034012EB8
:1048C00022D000266846007D0090401C019020897F
:1048D000A18800F045FB0700012300932068A18810
:1048E00000F028FBC21B012392B2B9B2E88800F0A5
:1048F0007FF9E8800499720089188882761CF6B2E4
:10490000019886421DDAE2E7A6882089310000F08E
:1049100027FB0700012300932068310000F00AFB09
:10492000C21B012392B2B9B2E88800F061F9E880B5
:104930002880E888E18840186880E888E188401A83
:10494000A880E988AEE0E87B012804D12889688145
:10495000AF81AF73EF73A87B3F2816D1AF73AF81E0
:10496000002356220121688900F042F96881401E27
:104970000111C90E09184911049A8B00D2189268C6
:104980004901401AC240D007EAD5A87BC10700D52B
:1049900001244108C90700D5641C8108C90700D556
:1049A000641CC108C90700D5641C0109C90700D5EA
:1049B000641C4009C00700D5641C6846007D2018AF
:1049C000401C072800D38AE06846007D0090012E35
:1049D00000D086E06846007D002801D1022004E076
:1049E000012801D1062000E0072000260621009AB8
:1049F000891A00E0761C8E4271DAAA7BF2400240EE
:104A0000F8D1060068894100081840000123411EC2
:104A10008AB2001F81B2A88900F0EAF8A8816989EA
:104A2000491E4A0051184900441AA87B7110621EA1
:104A30000300D3400B40D907E4D40100E140B21099
:104A40000A40DFD1A11EC8403040C007DAD420029E
:104A50002880601C00026880601E0002A88000237D
:104A600026220421E88800F0C3F8E8800026009898
:104A7000401C0190049871004018818AAA790A4369
:104A80008282761CF6B201988642F3DBAF73A87B74
:104A90008002E101E02292000A400243A87A410626
:104AA000490E11436846007E072851D089B2002084
:104AB000FCF786FE01004CD104986030818D012006
:104AC000FCF77EFE010044D10298007801283FD116
:104AD000E9880220FCF774FE010039D039E00F208C
:104AE00037E00026401C019004987100471868893F
:104AF000012341000A185204120C08184000401FFC
:104B000081B2A88900F074F8A8816989491E4A0019
:104B100051184900441AA87B611E0200CA40D207FE
:104B2000E5D401228A400243AA732002B8820023FE
:104B300026220421E88800F05BF8E880B98AC0B238
:104B40000843B882761CF6B2019886429FDACBE71A
:104B5000002007B0F0BD0000FFFF000070B5032A81
:104B600001D0072A34D18F22825C042A01D0022A84
:104B700009D1020090324B00C3189B8A948863438A
:104B80000468E41816E04A008218938A0200903202
:104B900014891D0A6D1E134E75436419DBB29625E8
:104BA000AD006B43E31804681C19C58B6D1E0E4ED7
:104BB0007543641912685208A21A00290AD1416883
:104BC000C9189023C0584008081A0849086001E035
:104BD000064802681000FCF7CAFD010000D1002061
:104BE00070BD0000A8610000E0930400580E002092
:104BF000F6B4002B03D105217F22062302E0082111
:104C00000E4A0A230124002800D1100006001E418C
:104C10000125354007000F4101263E404004000CAD
:104C20006E4000D0204310406D46AD888542EADBDF
:104C30006D462D88A842E6DBF6BC7047FF070000F2
:104C4000F8B5060000F073F80020FEF7D3FE3078C8
:104C5000644908702025CF24634F012804D170785F
:104C6000FF21183140181BE0022802D170780F3064
:104C700016E0032810D17078133080B2FEF7C6FD1D
:104C80000A20FEF7EEFD0A21F4200005FEF763FE80
:104C90000120FEF744FE20E004281ED17078273062
:104CA00080B2FEF7B3FD1220FEF7DBFD12213800C3
:104CB000FEF751FE0120FEF725FE6A460121112074
:104CC00004F085FE68460078044025436846057078
:104CD0006A460121112004F0A8FFB07800F038F8EE
:104CE000F1BD38B50400FEF7A5FD3E4D2978012938
:104CF00005D1FF211831884212DB401A10E0022949
:104D000003D10F280CDB0F380AE0032903D1132845
:104D100006DB133804E0042902D1272800DB2738FA
:104D2000607000F020F8A0702878207031BD80B548
:104D30006846002101606A4604212D2004F075FFB9
:104D400000902A4869460A7802704A78427001BD8C
:104D500001B582B002AA0121382004F066FF00905C
:104D60002248694624E000B583B06A460121382014
:104D700004F02DFE01901D4801A90A7802704A78BE
:104D80004270684600780EBD164908707047154895
:104D90000078704700B583B06946020A0A7048700F
:104DA0006A460221312004F040FF01900F4801A91A
:104DB0000A7802704A78427007BD00B583B06A462F
:104DC0000221312004F003FE0190084801A90A786D
:104DD00002704A78427069460878000249780843B0
:104DE0000EBD00005C0E002000405AE2B009002019
:104DF000020000200B0000D1704770B40B4B8024E0
:104E00002402050010780002684008254600204270
:104E100003D03000584080B200E0B0B26D1EF5D132
:104E2000521C491EEDD170BC7047000021100000DB
:104E3000020000200B0000D1704770B42F238024A3
:104E40001578684008254600204203D030005840BD
:104E5000C0B200E0F0B26D1EF5D1521C491EEFD178
:104E600070BC7047F3B581B00024112A01DB022128
:104E700000E0012119700025521E00920D4902E048
:104E8000641CE4B26D1C1E78EDB23701BD4207DA36
:104E9000029E365D4E55009A9442F1D10024F1E70E
:104EA0003201D2B20198FCF775FC010000D100205C
:104EB00003B0F0BD600E0020F8B582B007000C0012
:104EC00015000026002D03D02900200000F075F801
:104ED000280025D00095802013A16A46127A9200FE
:104EE0008918895D22783D7803001D420BD04B1E46
:104EF0009B41DB0F010059431143217009A18E5DD5
:104F0000B61CF6B204E04B431343237005A18E5D3B
:104F10004008E1D1641C7F1C0098401E0090DAD14B
:104F200003B0F0BD0000010100000000000101001D
:104F30000001000130B50B4601460020202201246B
:104F400009E00D46D5409D4205D31D469540491BBD
:104F50002546954040191546521E002DF1DC30BD06
:104F600070B500242546002801DA012440420029BA
:104F700001DA01254942FFF7DDFFAC4200D0404293
:104F8000002C00D0494270BD03460B439B0703D061
:104F900009E008C9121F08C0042AFAD203E00B78FE
:104FA0000370401C491C521EF9D27047D2B201E076
:104FB0000270401C491EFBD270470022F6E710B574
:104FC00013460A4604461946FFF7F0FF204610BD77
:104FD000F8B502464A40D40F42004B0052085B0825
:104FE0009A4202D20246084611464A0023D0C30D17
:104FF0004A00DDB2120EAD1A202D35DA4902012623
:10500000490AF6058A19002C00D0524220214F1B74
:105010001146B9402A411018C20D9A4221D0002CE5
:1050200017D0012D08DCDA05801AD20F8019D207BB
:10503000DBB200F093FBF8BDDA05801A01234000D3
:105040001B06C01880185A428018CA0F1043490026
:1050500007E04908C2071143DA05801A80194008A1
:10506000801800F073FBF8BD61000122511A001B8B
:10507000F7E70122D2075140AAE70122D2075040A8
:10508000A6E7024670B54A40D30FDB0740002DD09B
:105090004A002AD0010E140E000212020919400A19
:1050A000520A8418E50104465443000A120A2E04E9
:1050B0005043A4194219200CC543AA18120C01250B
:1050C000AD03521C521912047F39240400D0521C23
:1050D000104301D44000491EC2B20C06C00920187A
:1050E000401C4008802A02D003E0002070BD400828
:1050F0004000002900DA0020184370BD70B5024658
:105100004A40D50F40004A00ED07400852080028E9
:1051100014D0002A12D0C40DD30D41020120C005C5
:105120005202490A520AE41A091812187D349142AF
:1051300001D3641C00E04900002C01DA002070BD9E
:105140000023914201D3891A0343400849000028F3
:10515000F7D100290AD0914202D10121C90705E007
:10516000914201D2012101E00121C943E005C018AB
:10517000401900F0EBFA70BDF0B5074608465840FC
:1051800087B0C00F049048000E46590040084908F7
:10519000BC1A884105D2384631461E4617460B4692
:1051A00002465800400810434CD0300D0390400593
:1051B0005900400D490D0590401A0290402872DABE
:1051C00018030121000B090508430190049800927F
:1051D000002805D001995242002088410092019098
:1051E000029840210A1A0199009800F07BFA0546BE
:1051F0000C466B4607CB00F096FAC0197141039A32
:105200000E0D0023D71756401A467A40164344D055
:10521000049A002A2DD0029A012A039A15DC12055D
:10522000C01A914101263605001C7141D20F059E1E
:10523000D2070093019202962A46234600F0D4FA40
:1052400007B0F0BD38463146FAE71605224A0F4648
:10525000B218C01AB74101210905001C4F410018BE
:105260007F41114618187941E20F10436D196441CE
:1052700013E0E2076D0815436408C2071443039A5C
:1052800001261205C01A91413605001C7141CE0756
:10529000400830434908C01851412A46234600F0CF
:1052A00096FACDE7FFE7049801224000C117121AD1
:1052B00000238B4104983146C417381AA141EEE708
:1052C00030B40124E407634030BC55E730B4012416
:1052D000E407614030BC4FE70000E0FFF0B51FB4C9
:1052E00088B00B990998002448400999C00F4900DB
:1052F00049080991C0070B990090490049080B9192
:1053000009990898A64608431CD00B990A980843A7
:1053100018D0099801244000420D4800410D099819
:1053200024050003000B204309900B980003000B99
:1053300020430B9050181C4940180022019014463D
:10534000104605E0002001460DB0F0BD032801DA4B
:10535000034600E003239C46C11A0AAE0AE05F0040
:1053600008ADED5B4F00F75B7D430027AA187C4139
:10537000491C5B1E6145F2DD410004AB5A52210419
:10538000120C0A43240C401C0828DFDB0198029011
:105390000099704601910090059B049A0799069820
:1053A00000F022FAD0E700000DFCFFFFF0B50C463C
:1053B0005C4085B0E40FE40703944C0000266408C9
:1053C00059009446490802460296224321D062467B
:1053D0000A431ED06200570D4A000E032303550DE9
:1053E000012402462C492405781B1B0B360B401860
:1053F00023432643614600901C46501AB44103D310
:105400000098401C009002E0921800985B41002830
:1054100003DA0020014605B0F0BD00200121090596
:105420000746864611E064461D46141BB54106D367
:105430006546521BB341744607430C43A646CD074D
:1054400040084908284392185B4105460D43EAD1BC
:105450001046184313D06046194650407140084327
:1054600006D06046101AB34106D20122002306E09E
:1054700000220123DB0702E00122D24353100098EF
:1054800074460105381C6141029C039D0019694165
:1054900000F09DF9BFE70000FD03000070B54B0070
:1054A0005B0803430BD04B005C0D0026334665427E
:1054B000B341D417AD1AA34102DB0020014670BDF1
:1054C00012053018514170BDC217C10F504010B5C0
:1054D0004018CA079623002100F040F910BD10B50E
:1054E00000229623114600F039F910BD0EB5C217FF
:1054F000C10F5040CA0740180021054B029301928A
:1055000000910A460B4600F06FF903B000BD0000A1
:10551000330400000EB505490291002100910A46AE
:105520000B46019100F060F903B000BD33040000A8
:10553000C20F410040020123400ADB05D207090ED9
:10554000C0187F2901DA00207047962903DC9623D2
:10555000591AC84001E096398840002AF4D04042E8
:105560007047410040020122400AD205090E80180E
:105570007F2901DA00207047962903DC9622511A10
:10558000C8407047963988407047000070B5CD0F0D
:105590004A0009030123090B1B0519430B4BED07B7
:1055A0000024520D9A4201DA002070BD074B3433BB
:1055B0009A4203DC9A1A00F0A5F802E00449511857
:1055C00088402C43F1D0404270BD0000FF03000032
:1055D000CDFBFFFF4A0009030123090B1B051943FB
:1055E000094B10B5520D9A4201DA002010BD064B4E
:1055F00034339A4203DC9A1A00F084F810BD034950
:105600005118884010BD0000FF030000CDFBFFFFD4
:10561000C20FD207400040080BD0C10D0723DB01A9
:10562000C91840020905400A1143C2084007114346
:105630007047002001467047CB0FDB07490010B5CB
:10564000490802460A4307D00A0D07240903E4016A
:10565000090B121B002A01DC002010BDC900440FF9
:105660000C43C100E018D205801800F06FF810BD9F
:105670000122D207002800DB101A002900DB511A92
:1056800088427047F0B51FB40646002082B0054638
:105690004024019100901BE0019922460F463046BC
:1056A00000F030F8049A059B801A994110D31046F7
:1056B0001946224600F016F8361A8F410197224605
:1056C00001200021009F00F00DF838184D41009096
:1056D0002046641E0028DFDC019B009829463246E4
:1056E00007B0F0BD10B5202A04DB0146203A9140F6
:1056F000002010BD914020239C1A0346E34019432B
:10570000904010BD10B5202A04DB0846203AD04056
:10571000002110BD0B46D340D0402024A21A914056
:105720000843194610BD10B5202A06DBCB170846E2
:10573000203A1041C1170B4306E00B461341D040FD
:105740002024A21A91400843194610BD002904DA0A
:10575000401C490001D140084000704770B400244B
:10576000050C05D11024000402D1002921D01124F8
:10577000050E01D100020834050F01D10001241DDE
:10578000850F01D18000A41C002801DB4000641CAF
:10579000002908D020252E1B0D46F540A14000D041
:1057A00001212943084301061B1B000ADB1D02D50A
:1057B000002070BC7047DB05181880180029F8DA43
:1057C000401C4900F5D170BC40084000704710B53E
:1057D000002B08DA0024401C614192185B411A43F7
:1057E00001D14008400010BDF0B51FB482B005469D
:1057F0000C0003D0084605F0FFF902E005F0FCF9C3
:1058000020300246009021462846FFF76BFF049B9C
:10581000059A04460F4618431143084314D018460E
:1058200010431BD0009840210A1A18460599FFF72B
:1058300069FF05460E46009A05990498FFF752FF46
:10584000084305D0012004E02046394607B0F0BDEA
:105850000020C11705430E432C43374300990E988F
:105860006305401A7905E40A00220C43FD0A0A3058
:1058700002D500200146E9E70105101969410C9C99
:105880000D9D00196941FFF7A2FFDFE7F8B5054656
:10589000480040080C46284304D06000184A400DD8
:1058A000904201DD2846F8BD15493539884210DCA3
:1058B00088420BDB290D200308432903014305D04F
:1058C000E00F1049C00741180020F8BD0020014634
:1058D000F8BD161A4020821B28462146FFF702FF1A
:1058E00007460091284621463246FFF70BFF3A460D
:1058F000009BFFF76CFF3246FFF7F4FEF8BD000097
:10590000330400000000F03F4A0009030123090BA3
:105910001B0519430A4B10B5520D9A4202DA0020BA
:10592000014610BD064B34339A4203DC9A1AFFF746
:10593000E9FE10BD034BD218FFF7D4FE10BD0000E6
:10594000FF030000CDFBFFFF10B5002904DB01249D
:10595000E40740428C412146002B04DB1C46012316
:10596000DB075242A3418B4200D1824210BD0000AE
:1059700010B5002904DB0124E40740428C41214694
:10598000002B04DB1C460123DB075242A341994252
:1059900000D1904210BD0000064C0125064E05E0E6
:1059A000E36807CC2B430C3C98471034B442F7D340
:1059B000FAF78AFBA8C60008C8C60008FEB500238F
:1059C0001A461B1A8A4103DB0020014603B0F0BDD2
:1059D0004A000D0301212D0B0905520D0D43D1077E
:1059E00002D100186D41521E5110FF31FF310131BB
:1059F000002704463E4638460097019102460121A1
:105A000000200905FFF77EFEC3197141F8183246E0
:105A100084468E464A4161462846611A904104D325
:105A20006046241A954176461F46241900986D4118
:105A3000401C00903428E1DDF91930467041091B03
:105A4000A84103D20022D243134601E000221346AC
:105A500001980105381C7141FFF7B9FEB6E770B532
:105A60008C180578401C6B075B0F01D10378401C34
:105A70002A1106D10278401C03E006780E70401C03
:105A8000491C5B1EF9D12B0705D40023521E0DD4EF
:105A90000B70491CFAE70378401CCB1A921C03E0F8
:105AA0001D780D70491C5B1C521EF9D5A142D8D33C
:105AB000002070BD01214903884202D10149012023
:105AC000087070470000002070B5174C0546E0785C
:105AD000012820D004F054FD01281CD0BC202070E7
